{
  "contractName": "XiaoDouDouNFT",
  "abi": [
    {
      "inputs": [],
      "stateMutability": "nonpayable",
      "type": "constructor"
    },
    {
      "anonymous": false,
      "inputs": [
        {
          "indexed": true,
          "internalType": "address",
          "name": "owner",
          "type": "address"
        },
        {
          "indexed": true,
          "internalType": "address",
          "name": "approved",
          "type": "address"
        },
        {
          "indexed": true,
          "internalType": "uint256",
          "name": "tokenId",
          "type": "uint256"
        }
      ],
      "name": "Approval",
      "type": "event"
    },
    {
      "anonymous": false,
      "inputs": [
        {
          "indexed": true,
          "internalType": "address",
          "name": "owner",
          "type": "address"
        },
        {
          "indexed": true,
          "internalType": "address",
          "name": "operator",
          "type": "address"
        },
        {
          "indexed": false,
          "internalType": "bool",
          "name": "approved",
          "type": "bool"
        }
      ],
      "name": "ApprovalForAll",
      "type": "event"
    },
    {
      "anonymous": false,
      "inputs": [
        {
          "indexed": false,
          "internalType": "address",
          "name": "account",
          "type": "address"
        }
      ],
      "name": "Paused",
      "type": "event"
    },
    {
      "anonymous": false,
      "inputs": [
        {
          "indexed": true,
          "internalType": "bytes32",
          "name": "role",
          "type": "bytes32"
        },
        {
          "indexed": true,
          "internalType": "bytes32",
          "name": "previousAdminRole",
          "type": "bytes32"
        },
        {
          "indexed": true,
          "internalType": "bytes32",
          "name": "newAdminRole",
          "type": "bytes32"
        }
      ],
      "name": "RoleAdminChanged",
      "type": "event"
    },
    {
      "anonymous": false,
      "inputs": [
        {
          "indexed": true,
          "internalType": "bytes32",
          "name": "role",
          "type": "bytes32"
        },
        {
          "indexed": true,
          "internalType": "address",
          "name": "account",
          "type": "address"
        },
        {
          "indexed": true,
          "internalType": "address",
          "name": "sender",
          "type": "address"
        }
      ],
      "name": "RoleGranted",
      "type": "event"
    },
    {
      "anonymous": false,
      "inputs": [
        {
          "indexed": true,
          "internalType": "bytes32",
          "name": "role",
          "type": "bytes32"
        },
        {
          "indexed": true,
          "internalType": "address",
          "name": "account",
          "type": "address"
        },
        {
          "indexed": true,
          "internalType": "address",
          "name": "sender",
          "type": "address"
        }
      ],
      "name": "RoleRevoked",
      "type": "event"
    },
    {
      "anonymous": false,
      "inputs": [
        {
          "indexed": true,
          "internalType": "address",
          "name": "from",
          "type": "address"
        },
        {
          "indexed": true,
          "internalType": "address",
          "name": "to",
          "type": "address"
        },
        {
          "indexed": true,
          "internalType": "uint256",
          "name": "tokenId",
          "type": "uint256"
        }
      ],
      "name": "Transfer",
      "type": "event"
    },
    {
      "anonymous": false,
      "inputs": [
        {
          "indexed": false,
          "internalType": "address",
          "name": "account",
          "type": "address"
        }
      ],
      "name": "Unpaused",
      "type": "event"
    },
    {
      "inputs": [],
      "name": "DEFAULT_ADMIN_ROLE",
      "outputs": [
        {
          "internalType": "bytes32",
          "name": "",
          "type": "bytes32"
        }
      ],
      "stateMutability": "view",
      "type": "function"
    },
    {
      "inputs": [],
      "name": "MINTER_ROLE",
      "outputs": [
        {
          "internalType": "bytes32",
          "name": "",
          "type": "bytes32"
        }
      ],
      "stateMutability": "view",
      "type": "function"
    },
    {
      "inputs": [],
      "name": "PAUSER_ROLE",
      "outputs": [
        {
          "internalType": "bytes32",
          "name": "",
          "type": "bytes32"
        }
      ],
      "stateMutability": "view",
      "type": "function"
    },
    {
      "inputs": [
        {
          "internalType": "address",
          "name": "to",
          "type": "address"
        },
        {
          "internalType": "uint256",
          "name": "tokenId",
          "type": "uint256"
        }
      ],
      "name": "approve",
      "outputs": [],
      "stateMutability": "nonpayable",
      "type": "function"
    },
    {
      "inputs": [
        {
          "internalType": "address",
          "name": "owner",
          "type": "address"
        }
      ],
      "name": "balanceOf",
      "outputs": [
        {
          "internalType": "uint256",
          "name": "",
          "type": "uint256"
        }
      ],
      "stateMutability": "view",
      "type": "function"
    },
    {
      "inputs": [
        {
          "internalType": "uint256",
          "name": "tokenId",
          "type": "uint256"
        }
      ],
      "name": "burn",
      "outputs": [],
      "stateMutability": "nonpayable",
      "type": "function"
    },
    {
      "inputs": [
        {
          "internalType": "uint256",
          "name": "tokenId",
          "type": "uint256"
        }
      ],
      "name": "getApproved",
      "outputs": [
        {
          "internalType": "address",
          "name": "",
          "type": "address"
        }
      ],
      "stateMutability": "view",
      "type": "function"
    },
    {
      "inputs": [
        {
          "internalType": "bytes32",
          "name": "role",
          "type": "bytes32"
        }
      ],
      "name": "getRoleAdmin",
      "outputs": [
        {
          "internalType": "bytes32",
          "name": "",
          "type": "bytes32"
        }
      ],
      "stateMutability": "view",
      "type": "function"
    },
    {
      "inputs": [
        {
          "internalType": "bytes32",
          "name": "role",
          "type": "bytes32"
        },
        {
          "internalType": "uint256",
          "name": "index",
          "type": "uint256"
        }
      ],
      "name": "getRoleMember",
      "outputs": [
        {
          "internalType": "address",
          "name": "",
          "type": "address"
        }
      ],
      "stateMutability": "view",
      "type": "function"
    },
    {
      "inputs": [
        {
          "internalType": "bytes32",
          "name": "role",
          "type": "bytes32"
        }
      ],
      "name": "getRoleMemberCount",
      "outputs": [
        {
          "internalType": "uint256",
          "name": "",
          "type": "uint256"
        }
      ],
      "stateMutability": "view",
      "type": "function"
    },
    {
      "inputs": [
        {
          "internalType": "bytes32",
          "name": "role",
          "type": "bytes32"
        },
        {
          "internalType": "address",
          "name": "account",
          "type": "address"
        }
      ],
      "name": "grantRole",
      "outputs": [],
      "stateMutability": "nonpayable",
      "type": "function"
    },
    {
      "inputs": [
        {
          "internalType": "bytes32",
          "name": "role",
          "type": "bytes32"
        },
        {
          "internalType": "address",
          "name": "account",
          "type": "address"
        }
      ],
      "name": "hasRole",
      "outputs": [
        {
          "internalType": "bool",
          "name": "",
          "type": "bool"
        }
      ],
      "stateMutability": "view",
      "type": "function"
    },
    {
      "inputs": [
        {
          "internalType": "address",
          "name": "owner",
          "type": "address"
        },
        {
          "internalType": "address",
          "name": "operator",
          "type": "address"
        }
      ],
      "name": "isApprovedForAll",
      "outputs": [
        {
          "internalType": "bool",
          "name": "",
          "type": "bool"
        }
      ],
      "stateMutability": "view",
      "type": "function"
    },
    {
      "inputs": [
        {
          "internalType": "address",
          "name": "to",
          "type": "address"
        }
      ],
      "name": "mint",
      "outputs": [],
      "stateMutability": "nonpayable",
      "type": "function"
    },
    {
      "inputs": [],
      "name": "name",
      "outputs": [
        {
          "internalType": "string",
          "name": "",
          "type": "string"
        }
      ],
      "stateMutability": "view",
      "type": "function"
    },
    {
      "inputs": [
        {
          "internalType": "address",
          "name": "",
          "type": "address"
        },
        {
          "internalType": "address",
          "name": "",
          "type": "address"
        },
        {
          "internalType": "uint256",
          "name": "",
          "type": "uint256"
        },
        {
          "internalType": "bytes",
          "name": "",
          "type": "bytes"
        }
      ],
      "name": "onERC721Received",
      "outputs": [
        {
          "internalType": "bytes4",
          "name": "",
          "type": "bytes4"
        }
      ],
      "stateMutability": "nonpayable",
      "type": "function"
    },
    {
      "inputs": [
        {
          "internalType": "uint256",
          "name": "tokenId",
          "type": "uint256"
        }
      ],
      "name": "ownerOf",
      "outputs": [
        {
          "internalType": "address",
          "name": "",
          "type": "address"
        }
      ],
      "stateMutability": "view",
      "type": "function"
    },
    {
      "inputs": [],
      "name": "pause",
      "outputs": [],
      "stateMutability": "nonpayable",
      "type": "function"
    },
    {
      "inputs": [],
      "name": "paused",
      "outputs": [
        {
          "internalType": "bool",
          "name": "",
          "type": "bool"
        }
      ],
      "stateMutability": "view",
      "type": "function"
    },
    {
      "inputs": [
        {
          "internalType": "bytes32",
          "name": "role",
          "type": "bytes32"
        },
        {
          "internalType": "address",
          "name": "account",
          "type": "address"
        }
      ],
      "name": "renounceRole",
      "outputs": [],
      "stateMutability": "nonpayable",
      "type": "function"
    },
    {
      "inputs": [
        {
          "internalType": "bytes32",
          "name": "role",
          "type": "bytes32"
        },
        {
          "internalType": "address",
          "name": "account",
          "type": "address"
        }
      ],
      "name": "revokeRole",
      "outputs": [],
      "stateMutability": "nonpayable",
      "type": "function"
    },
    {
      "inputs": [
        {
          "internalType": "address",
          "name": "from",
          "type": "address"
        },
        {
          "internalType": "address",
          "name": "to",
          "type": "address"
        },
        {
          "internalType": "uint256",
          "name": "tokenId",
          "type": "uint256"
        }
      ],
      "name": "safeTransferFrom",
      "outputs": [],
      "stateMutability": "nonpayable",
      "type": "function"
    },
    {
      "inputs": [
        {
          "internalType": "address",
          "name": "from",
          "type": "address"
        },
        {
          "internalType": "address",
          "name": "to",
          "type": "address"
        },
        {
          "internalType": "uint256",
          "name": "tokenId",
          "type": "uint256"
        },
        {
          "internalType": "bytes",
          "name": "_data",
          "type": "bytes"
        }
      ],
      "name": "safeTransferFrom",
      "outputs": [],
      "stateMutability": "nonpayable",
      "type": "function"
    },
    {
      "inputs": [
        {
          "internalType": "address",
          "name": "operator",
          "type": "address"
        },
        {
          "internalType": "bool",
          "name": "approved",
          "type": "bool"
        }
      ],
      "name": "setApprovalForAll",
      "outputs": [],
      "stateMutability": "nonpayable",
      "type": "function"
    },
    {
      "inputs": [
        {
          "internalType": "string",
          "name": "baseURI_",
          "type": "string"
        }
      ],
      "name": "setBaseURI",
      "outputs": [],
      "stateMutability": "nonpayable",
      "type": "function"
    },
    {
      "inputs": [
        {
          "internalType": "bytes4",
          "name": "interfaceId",
          "type": "bytes4"
        }
      ],
      "name": "supportsInterface",
      "outputs": [
        {
          "internalType": "bool",
          "name": "",
          "type": "bool"
        }
      ],
      "stateMutability": "view",
      "type": "function"
    },
    {
      "inputs": [],
      "name": "symbol",
      "outputs": [
        {
          "internalType": "string",
          "name": "",
          "type": "string"
        }
      ],
      "stateMutability": "view",
      "type": "function"
    },
    {
      "inputs": [
        {
          "internalType": "uint256",
          "name": "index",
          "type": "uint256"
        }
      ],
      "name": "tokenByIndex",
      "outputs": [
        {
          "internalType": "uint256",
          "name": "",
          "type": "uint256"
        }
      ],
      "stateMutability": "view",
      "type": "function"
    },
    {
      "inputs": [
        {
          "internalType": "address",
          "name": "owner",
          "type": "address"
        },
        {
          "internalType": "uint256",
          "name": "index",
          "type": "uint256"
        }
      ],
      "name": "tokenOfOwnerByIndex",
      "outputs": [
        {
          "internalType": "uint256",
          "name": "",
          "type": "uint256"
        }
      ],
      "stateMutability": "view",
      "type": "function"
    },
    {
      "inputs": [
        {
          "internalType": "uint256",
          "name": "tokenId",
          "type": "uint256"
        }
      ],
      "name": "tokenURI",
      "outputs": [
        {
          "internalType": "string",
          "name": "",
          "type": "string"
        }
      ],
      "stateMutability": "view",
      "type": "function"
    },
    {
      "inputs": [],
      "name": "totalSupply",
      "outputs": [
        {
          "internalType": "uint256",
          "name": "",
          "type": "uint256"
        }
      ],
      "stateMutability": "view",
      "type": "function"
    },
    {
      "inputs": [
        {
          "internalType": "address",
          "name": "from",
          "type": "address"
        },
        {
          "internalType": "address",
          "name": "to",
          "type": "address"
        },
        {
          "internalType": "uint256",
          "name": "tokenId",
          "type": "uint256"
        }
      ],
      "name": "transferFrom",
      "outputs": [],
      "stateMutability": "nonpayable",
      "type": "function"
    },
    {
      "inputs": [],
      "name": "unpause",
      "outputs": [],
      "stateMutability": "nonpayable",
      "type": "function"
    }
  ],
  "bytecode": "0x60806040523480156200001157600080fd5b506040518060400160405280600a81526020017f5869616f446f75446f75000000000000000000000000000000000000000000008152506040518060400160405280600381526020017f444f55000000000000000000000000000000000000000000000000000000000081525060405180606001604052806040815260200162004fb86040913982828160029080519060200190620000b292919062000447565b508060039080519060200190620000cb92919062000447565b5050506000600c60006101000a81548160ff02191690831515021790555080600e90805190602001906200010192919062000447565b50620001266000801b6200011a620001b160201b60201c565b620001b960201b60201c565b620001677f9f2df0fed2c77648de5860a4cc508cd0818c85b8b8a1ab4ceeef8d981c8956a66200015b620001b160201b60201c565b620001b960201b60201c565b620001a87f65d7a28e3265b37a6474929f336521b332c1681b933f6cb9f3376673440d862a6200019c620001b160201b60201c565b620001b960201b60201c565b5050506200055c565b600033905090565b620001d082826200020160201b620013741760201c565b620001fc81600160008581526020019081526020016000206200021760201b620013821790919060201c565b505050565b6200021382826200024f60201b60201c565b5050565b600062000247836000018373ffffffffffffffffffffffffffffffffffffffff1660001b6200034060201b60201c565b905092915050565b620002618282620003ba60201b60201c565b6200033c57600160008084815260200190815260200160002060000160008373ffffffffffffffffffffffffffffffffffffffff1673ffffffffffffffffffffffffffffffffffffffff16815260200190815260200160002060006101000a81548160ff021916908315150217905550620002e1620001b160201b60201c565b73ffffffffffffffffffffffffffffffffffffffff168173ffffffffffffffffffffffffffffffffffffffff16837f2f8788117e7eff1d82e926ec794901d17c78024a50270940304540a733656f0d60405160405180910390a45b5050565b60006200035483836200042460201b60201c565b620003af578260000182908060018154018082558091505060019003906000526020600020016000909190919091505582600001805490508360010160008481526020019081526020016000208190555060019050620003b4565b600090505b92915050565b600080600084815260200190815260200160002060000160008373ffffffffffffffffffffffffffffffffffffffff1673ffffffffffffffffffffffffffffffffffffffff16815260200190815260200160002060009054906101000a900460ff16905092915050565b600080836001016000848152602001908152602001600020541415905092915050565b828054620004559062000526565b90600052602060002090601f016020900481019282620004795760008555620004c5565b82601f106200049457805160ff1916838001178555620004c5565b82800160010185558215620004c5579182015b82811115620004c4578251825591602001919060010190620004a7565b5b509050620004d49190620004d8565b5090565b5b80821115620004f3576000816000905550600101620004d9565b5090565b7f4e487b7100000000000000000000000000000000000000000000000000000000600052602260045260246000fd5b600060028204905060018216806200053f57607f821691505b60208210811415620005565762000555620004f7565b5b50919050565b614a4c806200056c6000396000f3fe608060405234801561001057600080fd5b50600436106101fb5760003560e01c80635c975abb1161011a578063a217fddf116100ad578063ca15c8731161007c578063ca15c873146105d2578063d539139314610602578063d547741f14610620578063e63ab1e91461063c578063e985e9c51461065a576101fb565b8063a217fddf1461054c578063a22cb4651461056a578063b88d4fde14610586578063c87b56dd146105a2576101fb565b80638456cb59116100e95780638456cb59146104c45780639010d07c146104ce57806391d14854146104fe57806395d89b411461052e576101fb565b80635c975abb1461042a5780636352211e146104485780636a6278421461047857806370a0823114610494576101fb565b80632f2ff15d1161019257806342842e0e1161016157806342842e0e146103a657806342966c68146103c25780634f6ccce7146103de57806355f804b31461040e576101fb565b80632f2ff15d146103345780632f745c591461035057806336568abe146103805780633f4ba83a1461039c576101fb565b8063150b7a02116101ce578063150b7a021461029a57806318160ddd146102ca57806323b872dd146102e8578063248a9ca314610304576101fb565b806301ffc9a71461020057806306fdde0314610230578063081812fc1461024e578063095ea7b31461027e575b600080fd5b61021a60048036038101906102159190613055565b61068a565b604051610227919061309d565b60405180910390f35b61023861069c565b6040516102459190613151565b60405180910390f35b610268600480360381019061026391906131a9565b61072e565b6040516102759190613217565b60405180910390f35b6102986004803603810190610293919061325e565b6107b3565b005b6102b460048036038101906102af91906133d3565b6108cb565b6040516102c19190613465565b60405180910390f35b6102d26108df565b6040516102df919061348f565b60405180910390f35b61030260048036038101906102fd91906134aa565b6108ec565b005b61031e60048036038101906103199190613533565b61094c565b60405161032b919061356f565b60405180910390f35b61034e6004803603810190610349919061358a565b61096b565b005b61036a6004803603810190610365919061325e565b61099f565b604051610377919061348f565b60405180910390f35b61039a6004803603810190610395919061358a565b610a44565b005b6103a4610a78565b005b6103c060048036038101906103bb91906134aa565b610af2565b005b6103dc60048036038101906103d791906131a9565b610b12565b005b6103f860048036038101906103f391906131a9565b610b6e565b604051610405919061348f565b60405180910390f35b6104286004803603810190610423919061366b565b610bdf565b005b610432610bf9565b60405161043f919061309d565b60405180910390f35b610462600480360381019061045d91906131a9565b610c10565b60405161046f9190613217565b60405180910390f35b610492600480360381019061048d91906136b4565b610cc2565b005b6104ae60048036038101906104a991906136b4565b610d52565b6040516104bb919061348f565b60405180910390f35b6104cc610e0a565b005b6104e860048036038101906104e391906136e1565b610e84565b6040516104f59190613217565b60405180910390f35b6105186004803603810190610513919061358a565b610eb3565b604051610525919061309d565b60405180910390f35b610536610f1d565b6040516105439190613151565b60405180910390f35b610554610faf565b604051610561919061356f565b60405180910390f35b610584600480360381019061057f919061374d565b610fb6565b005b6105a0600480360381019061059b91906133d3565b611137565b005b6105bc60048036038101906105b791906131a9565b611199565b6040516105c99190613151565b60405180910390f35b6105ec60048036038101906105e79190613533565b611240565b6040516105f9919061348f565b60405180910390f35b61060a611264565b604051610617919061356f565b60405180910390f35b61063a6004803603810190610635919061358a565b611288565b005b6106446112bc565b604051610651919061356f565b60405180910390f35b610674600480360381019061066f919061378d565b6112e0565b604051610681919061309d565b60405180910390f35b6000610695826113b2565b9050919050565b6060600280546106ab906137fc565b80601f01602080910402602001604051908101604052809291908181526020018280546106d7906137fc565b80156107245780601f106106f957610100808354040283529160200191610724565b820191906000526020600020905b81548152906001019060200180831161070757829003601f168201915b5050505050905090565b60006107398261142c565b610778576040517f08c379a000000000000000000000000000000000000000000000000000000000815260040161076f906138a0565b60405180910390fd5b6006600083815260200190815260200160002060009054906101000a900473ffffffffffffffffffffffffffffffffffffffff169050919050565b60006107be82610c10565b90508073ffffffffffffffffffffffffffffffffffffffff168373ffffffffffffffffffffffffffffffffffffffff16141561082f576040517f08c379a000000000000000000000000000000000000000000000000000000000815260040161082690613932565b60405180910390fd5b8073ffffffffffffffffffffffffffffffffffffffff1661084e611498565b73ffffffffffffffffffffffffffffffffffffffff16148061087d575061087c81610877611498565b6112e0565b5b6108bc576040517f08c379a00000000000000000000000000000000000000000000000000000000081526004016108b3906139c4565b60405180910390fd5b6108c683836114a0565b505050565b600063150b7a0260e01b9050949350505050565b6000600a80549050905090565b6108fd6108f7611498565b82611559565b61093c576040517f08c379a000000000000000000000000000000000000000000000000000000000815260040161093390613a56565b60405180910390fd5b610947838383611637565b505050565b6000806000838152602001908152602001600020600101549050919050565b6109758282611893565b61099a816001600085815260200190815260200160002061138290919063ffffffff16565b505050565b60006109aa83610d52565b82106109eb576040517f08c379a00000000000000000000000000000000000000000000000000000000081526004016109e290613ae8565b60405180910390fd5b600860008473ffffffffffffffffffffffffffffffffffffffff1673ffffffffffffffffffffffffffffffffffffffff168152602001908152602001600020600083815260200190815260200160002054905092915050565b610a4e82826118bc565b610a73816001600085815260200190815260200160002061193f90919063ffffffff16565b505050565b610aa97f65d7a28e3265b37a6474929f336521b332c1681b933f6cb9f3376673440d862a610aa4611498565b610eb3565b610ae8576040517f08c379a0000000000000000000000000000000000000000000000000000000008152600401610adf90613b7a565b60405180910390fd5b610af061196f565b565b610b0d83838360405180602001604052806000815250611137565b505050565b610b23610b1d611498565b82611559565b610b62576040517f08c379a0000000000000000000000000000000000000000000000000000000008152600401610b5990613c0c565b60405180910390fd5b610b6b81611a11565b50565b6000610b786108df565b8210610bb9576040517f08c379a0000000000000000000000000000000000000000000000000000000008152600401610bb090613c9e565b60405180910390fd5b600a8281548110610bcd57610bcc613cbe565b5b90600052602060002001549050919050565b80600e9080519060200190610bf5929190612f46565b5050565b6000600c60009054906101000a900460ff16905090565b6000806004600084815260200190815260200160002060009054906101000a900473ffffffffffffffffffffffffffffffffffffffff169050600073ffffffffffffffffffffffffffffffffffffffff168173ffffffffffffffffffffffffffffffffffffffff161415610cb9576040517f08c379a0000000000000000000000000000000000000000000000000000000008152600401610cb090613d5f565b60405180910390fd5b80915050919050565b610cf37f9f2df0fed2c77648de5860a4cc508cd0818c85b8b8a1ab4ceeef8d981c8956a6610cee611498565b610eb3565b610d32576040517f08c379a0000000000000000000000000000000000000000000000000000000008152600401610d2990613df1565b60405180910390fd5b610d4581610d40600d611b22565b611b30565b610d4f600d611cfe565b50565b60008073ffffffffffffffffffffffffffffffffffffffff168273ffffffffffffffffffffffffffffffffffffffff161415610dc3576040517f08c379a0000000000000000000000000000000000000000000000000000000008152600401610dba90613e83565b60405180910390fd5b600560008373ffffffffffffffffffffffffffffffffffffffff1673ffffffffffffffffffffffffffffffffffffffff168152602001908152602001600020549050919050565b610e3b7f65d7a28e3265b37a6474929f336521b332c1681b933f6cb9f3376673440d862a610e36611498565b610eb3565b610e7a576040517f08c379a0000000000000000000000000000000000000000000000000000000008152600401610e7190613f15565b60405180910390fd5b610e82611d1d565b565b6000610eab8260016000868152602001908152602001600020611dc090919063ffffffff16565b905092915050565b600080600084815260200190815260200160002060000160008373ffffffffffffffffffffffffffffffffffffffff1673ffffffffffffffffffffffffffffffffffffffff16815260200190815260200160002060009054906101000a900460ff16905092915050565b606060038054610f2c906137fc565b80601f0160208091040260200160405190810160405280929190818152602001828054610f58906137fc565b8015610fa55780601f10610f7a57610100808354040283529160200191610fa5565b820191906000526020600020905b815481529060010190602001808311610f8857829003601f168201915b5050505050905090565b6000801b81565b610fbe611498565b73ffffffffffffffffffffffffffffffffffffffff168273ffffffffffffffffffffffffffffffffffffffff16141561102c576040517f08c379a000000000000000000000000000000000000000000000000000000000815260040161102390613f81565b60405180910390fd5b8060076000611039611498565b73ffffffffffffffffffffffffffffffffffffffff1673ffffffffffffffffffffffffffffffffffffffff16815260200190815260200160002060008473ffffffffffffffffffffffffffffffffffffffff1673ffffffffffffffffffffffffffffffffffffffff16815260200190815260200160002060006101000a81548160ff0219169083151502179055508173ffffffffffffffffffffffffffffffffffffffff166110e6611498565b73ffffffffffffffffffffffffffffffffffffffff167f17307eab39ab6107e8899845ad3d59bd9653f200f220920489ca2b5937696c318360405161112b919061309d565b60405180910390a35050565b611148611142611498565b83611559565b611187576040517f08c379a000000000000000000000000000000000000000000000000000000000815260040161117e90613a56565b60405180910390fd5b61119384848484611dda565b50505050565b60606111a48261142c565b6111e3576040517f08c379a00000000000000000000000000000000000000000000000000000000081526004016111da90614013565b60405180910390fd5b60006111ed611e36565b9050600081511161120d5760405180602001604052806000815250611238565b8061121784611ec8565b60405160200161122892919061406f565b6040516020818303038152906040525b915050919050565b600061125d60016000848152602001908152602001600020612029565b9050919050565b7f9f2df0fed2c77648de5860a4cc508cd0818c85b8b8a1ab4ceeef8d981c8956a681565b611292828261203e565b6112b7816001600085815260200190815260200160002061193f90919063ffffffff16565b505050565b7f65d7a28e3265b37a6474929f336521b332c1681b933f6cb9f3376673440d862a81565b6000600760008473ffffffffffffffffffffffffffffffffffffffff1673ffffffffffffffffffffffffffffffffffffffff16815260200190815260200160002060008373ffffffffffffffffffffffffffffffffffffffff1673ffffffffffffffffffffffffffffffffffffffff16815260200190815260200160002060009054906101000a900460ff16905092915050565b61137e8282612067565b5050565b60006113aa836000018373ffffffffffffffffffffffffffffffffffffffff1660001b612147565b905092915050565b60007f780e9d63000000000000000000000000000000000000000000000000000000007bffffffffffffffffffffffffffffffffffffffffffffffffffffffff1916827bffffffffffffffffffffffffffffffffffffffffffffffffffffffff191614806114255750611424826121b7565b5b9050919050565b60008073ffffffffffffffffffffffffffffffffffffffff166004600084815260200190815260200160002060009054906101000a900473ffffffffffffffffffffffffffffffffffffffff1673ffffffffffffffffffffffffffffffffffffffff1614159050919050565b600033905090565b816006600083815260200190815260200160002060006101000a81548173ffffffffffffffffffffffffffffffffffffffff021916908373ffffffffffffffffffffffffffffffffffffffff160217905550808273ffffffffffffffffffffffffffffffffffffffff1661151383610c10565b73ffffffffffffffffffffffffffffffffffffffff167f8c5be1e5ebec7d5bd14f71427d1e84f3dd0314c0f7b2291e5b200ac8c7c3b92560405160405180910390a45050565b60006115648261142c565b6115a3576040517f08c379a000000000000000000000000000000000000000000000000000000000815260040161159a90614105565b60405180910390fd5b60006115ae83610c10565b90508073ffffffffffffffffffffffffffffffffffffffff168473ffffffffffffffffffffffffffffffffffffffff16148061161d57508373ffffffffffffffffffffffffffffffffffffffff166116058461072e565b73ffffffffffffffffffffffffffffffffffffffff16145b8061162e575061162d81856112e0565b5b91505092915050565b8273ffffffffffffffffffffffffffffffffffffffff1661165782610c10565b73ffffffffffffffffffffffffffffffffffffffff16146116ad576040517f08c379a00000000000000000000000000000000000000000000000000000000081526004016116a490614197565b60405180910390fd5b600073ffffffffffffffffffffffffffffffffffffffff168273ffffffffffffffffffffffffffffffffffffffff16141561171d576040517f08c379a000000000000000000000000000000000000000000000000000000000815260040161171490614229565b60405180910390fd5b611728838383612299565b6117336000826114a0565b6001600560008573ffffffffffffffffffffffffffffffffffffffff1673ffffffffffffffffffffffffffffffffffffffff16815260200190815260200160002060008282546117839190614278565b925050819055506001600560008473ffffffffffffffffffffffffffffffffffffffff1673ffffffffffffffffffffffffffffffffffffffff16815260200190815260200160002060008282546117da91906142ac565b92505081905550816004600083815260200190815260200160002060006101000a81548173ffffffffffffffffffffffffffffffffffffffff021916908373ffffffffffffffffffffffffffffffffffffffff160217905550808273ffffffffffffffffffffffffffffffffffffffff168473ffffffffffffffffffffffffffffffffffffffff167fddf252ad1be2c89b69c2b068fc378daa952ba7f163c4a11628f55a4df523b3ef60405160405180910390a4505050565b61189c8261094c565b6118ad816118a8611498565b6122a9565b6118b78383612067565b505050565b6118c4611498565b73ffffffffffffffffffffffffffffffffffffffff168173ffffffffffffffffffffffffffffffffffffffff1614611931576040517f08c379a000000000000000000000000000000000000000000000000000000000815260040161192890614374565b60405180910390fd5b61193b8282612346565b5050565b6000611967836000018373ffffffffffffffffffffffffffffffffffffffff1660001b612427565b905092915050565b611977610bf9565b6119b6576040517f08c379a00000000000000000000000000000000000000000000000000000000081526004016119ad906143e0565b60405180910390fd5b6000600c60006101000a81548160ff0219169083151502179055507f5db9ee0a495bf2e6ff9c91a7834c1ba4fdd244a5e8aa4e537bd38aeae4b073aa6119fa611498565b604051611a079190613217565b60405180910390a1565b6000611a1c82610c10565b9050611a2a81600084612299565b611a356000836114a0565b6001600560008373ffffffffffffffffffffffffffffffffffffffff1673ffffffffffffffffffffffffffffffffffffffff1681526020019081526020016000206000828254611a859190614278565b925050819055506004600083815260200190815260200160002060006101000a81549073ffffffffffffffffffffffffffffffffffffffff021916905581600073ffffffffffffffffffffffffffffffffffffffff168273ffffffffffffffffffffffffffffffffffffffff167fddf252ad1be2c89b69c2b068fc378daa952ba7f163c4a11628f55a4df523b3ef60405160405180910390a45050565b600081600001549050919050565b600073ffffffffffffffffffffffffffffffffffffffff168273ffffffffffffffffffffffffffffffffffffffff161415611ba0576040517f08c379a0000000000000000000000000000000000000000000000000000000008152600401611b979061444c565b60405180910390fd5b611ba98161142c565b15611be9576040517f08c379a0000000000000000000000000000000000000000000000000000000008152600401611be0906144b8565b60405180910390fd5b611bf560008383612299565b6001600560008473ffffffffffffffffffffffffffffffffffffffff1673ffffffffffffffffffffffffffffffffffffffff1681526020019081526020016000206000828254611c4591906142ac565b92505081905550816004600083815260200190815260200160002060006101000a81548173ffffffffffffffffffffffffffffffffffffffff021916908373ffffffffffffffffffffffffffffffffffffffff160217905550808273ffffffffffffffffffffffffffffffffffffffff16600073ffffffffffffffffffffffffffffffffffffffff167fddf252ad1be2c89b69c2b068fc378daa952ba7f163c4a11628f55a4df523b3ef60405160405180910390a45050565b6001816000016000828254611d1391906142ac565b9250508190555050565b611d25610bf9565b15611d65576040517f08c379a0000000000000000000000000000000000000000000000000000000008152600401611d5c90614524565b60405180910390fd5b6001600c60006101000a81548160ff0219169083151502179055507f62e78cea01bee320cd4e420270b5ea74000d11b0c9f74754ebdbfc544b05a258611da9611498565b604051611db69190613217565b60405180910390a1565b6000611dcf836000018361253b565b60001c905092915050565b611de5848484611637565b611df184848484612566565b611e30576040517f08c379a0000000000000000000000000000000000000000000000000000000008152600401611e27906145b6565b60405180910390fd5b50505050565b6060600e8054611e45906137fc565b80601f0160208091040260200160405190810160405280929190818152602001828054611e71906137fc565b8015611ebe5780601f10611e9357610100808354040283529160200191611ebe565b820191906000526020600020905b815481529060010190602001808311611ea157829003601f168201915b5050505050905090565b60606000821415611f10576040518060400160405280600181526020017f30000000000000000000000000000000000000000000000000000000000000008152509050612024565b600082905060005b60008214611f42578080611f2b906145d6565b915050600a82611f3b919061464e565b9150611f18565b60008167ffffffffffffffff811115611f5e57611f5d6132a8565b5b6040519080825280601f01601f191660200182016040528015611f905781602001600182028036833780820191505090505b5090505b6000851461201d57600182611fa99190614278565b9150600a85611fb8919061467f565b6030611fc491906142ac565b60f81b818381518110611fda57611fd9613cbe565b5b60200101907effffffffffffffffffffffffffffffffffffffffffffffffffffffffffffff1916908160001a905350600a85612016919061464e565b9450611f94565b8093505050505b919050565b6000612037826000016126ee565b9050919050565b6120478261094c565b61205881612053611498565b6122a9565b6120628383612346565b505050565b6120718282610eb3565b61214357600160008084815260200190815260200160002060000160008373ffffffffffffffffffffffffffffffffffffffff1673ffffffffffffffffffffffffffffffffffffffff16815260200190815260200160002060006101000a81548160ff0219169083151502179055506120e8611498565b73ffffffffffffffffffffffffffffffffffffffff168173ffffffffffffffffffffffffffffffffffffffff16837f2f8788117e7eff1d82e926ec794901d17c78024a50270940304540a733656f0d60405160405180910390a45b5050565b600061215383836126ff565b6121ac5782600001829080600181540180825580915050600190039060005260206000200160009091909190915055826000018054905083600101600084815260200190815260200160002081905550600190506121b1565b600090505b92915050565b60007f80ac58cd000000000000000000000000000000000000000000000000000000007bffffffffffffffffffffffffffffffffffffffffffffffffffffffff1916827bffffffffffffffffffffffffffffffffffffffffffffffffffffffff1916148061228257507f5b5e139f000000000000000000000000000000000000000000000000000000007bffffffffffffffffffffffffffffffffffffffffffffffffffffffff1916827bffffffffffffffffffffffffffffffffffffffffffffffffffffffff1916145b80612292575061229182612722565b5b9050919050565b6122a483838361279c565b505050565b6122b38282610eb3565b612342576122d88173ffffffffffffffffffffffffffffffffffffffff1660146127f4565b6122e68360001c60206127f4565b6040516020016122f7929190614748565b6040516020818303038152906040526040517f08c379a00000000000000000000000000000000000000000000000000000000081526004016123399190613151565b60405180910390fd5b5050565b6123508282610eb3565b1561242357600080600084815260200190815260200160002060000160008373ffffffffffffffffffffffffffffffffffffffff1673ffffffffffffffffffffffffffffffffffffffff16815260200190815260200160002060006101000a81548160ff0219169083151502179055506123c8611498565b73ffffffffffffffffffffffffffffffffffffffff168173ffffffffffffffffffffffffffffffffffffffff16837ff6391f5c32d9c69d2a47ea670b442974b53935d1edc7fd64eb21e047a839171b60405160405180910390a45b5050565b6000808360010160008481526020019081526020016000205490506000811461252f5760006001826124599190614278565b90506000600186600001805490506124719190614278565b90508181146124e057600086600001828154811061249257612491613cbe565b5b90600052602060002001549050808760000184815481106124b6576124b5613cbe565b5b90600052602060002001819055508387600101600083815260200190815260200160002081905550505b856000018054806124f4576124f3614782565b5b600190038181906000526020600020016000905590558560010160008681526020019081526020016000206000905560019350505050612535565b60009150505b92915050565b600082600001828154811061255357612552613cbe565b5b9060005260206000200154905092915050565b60006125878473ffffffffffffffffffffffffffffffffffffffff16612a30565b156126e1578373ffffffffffffffffffffffffffffffffffffffff1663150b7a026125b0611498565b8786866040518563ffffffff1660e01b81526004016125d29493929190614806565b6020604051808303816000875af192505050801561260e57506040513d601f19601f8201168201806040525081019061260b9190614867565b60015b612691573d806000811461263e576040519150601f19603f3d011682016040523d82523d6000602084013e612643565b606091505b50600081511415612689576040517f08c379a0000000000000000000000000000000000000000000000000000000008152600401612680906145b6565b60405180910390fd5b805181602001fd5b63150b7a0260e01b7bffffffffffffffffffffffffffffffffffffffffffffffffffffffff1916817bffffffffffffffffffffffffffffffffffffffffffffffffffffffff1916149150506126e6565b600190505b949350505050565b600081600001805490509050919050565b600080836001016000848152602001908152602001600020541415905092915050565b60007f5a05180f000000000000000000000000000000000000000000000000000000007bffffffffffffffffffffffffffffffffffffffffffffffffffffffff1916827bffffffffffffffffffffffffffffffffffffffffffffffffffffffff19161480612795575061279482612a43565b5b9050919050565b6127a7838383612abd565b6127af610bf9565b156127ef576040517f08c379a00000000000000000000000000000000000000000000000000000000081526004016127e690614906565b60405180910390fd5b505050565b6060600060028360026128079190614926565b61281191906142ac565b67ffffffffffffffff81111561282a576128296132a8565b5b6040519080825280601f01601f19166020018201604052801561285c5781602001600182028036833780820191505090505b5090507f30000000000000000000000000000000000000000000000000000000000000008160008151811061289457612893613cbe565b5b60200101907effffffffffffffffffffffffffffffffffffffffffffffffffffffffffffff1916908160001a9053507f7800000000000000000000000000000000000000000000000000000000000000816001815181106128f8576128f7613cbe565b5b60200101907effffffffffffffffffffffffffffffffffffffffffffffffffffffffffffff1916908160001a905350600060018460026129389190614926565b61294291906142ac565b90505b60018111156129e2577f3031323334353637383961626364656600000000000000000000000000000000600f86166010811061298457612983613cbe565b5b1a60f81b82828151811061299b5761299a613cbe565b5b60200101907effffffffffffffffffffffffffffffffffffffffffffffffffffffffffffff1916908160001a905350600485901c9450806129db90614980565b9050612945565b5060008414612a26576040517f08c379a0000000000000000000000000000000000000000000000000000000008152600401612a1d906149f6565b60405180910390fd5b8091505092915050565b600080823b905060008111915050919050565b60007f7965db0b000000000000000000000000000000000000000000000000000000007bffffffffffffffffffffffffffffffffffffffffffffffffffffffff1916827bffffffffffffffffffffffffffffffffffffffffffffffffffffffff19161480612ab65750612ab582612bd1565b5b9050919050565b612ac8838383612c3b565b600073ffffffffffffffffffffffffffffffffffffffff168373ffffffffffffffffffffffffffffffffffffffff161415612b0b57612b0681612c40565b612b4a565b8173ffffffffffffffffffffffffffffffffffffffff168373ffffffffffffffffffffffffffffffffffffffff1614612b4957612b488382612c89565b5b5b600073ffffffffffffffffffffffffffffffffffffffff168273ffffffffffffffffffffffffffffffffffffffff161415612b8d57612b8881612df6565b612bcc565b8273ffffffffffffffffffffffffffffffffffffffff168273ffffffffffffffffffffffffffffffffffffffff1614612bcb57612bca8282612ec7565b5b5b505050565b60007f01ffc9a7000000000000000000000000000000000000000000000000000000007bffffffffffffffffffffffffffffffffffffffffffffffffffffffff1916827bffffffffffffffffffffffffffffffffffffffffffffffffffffffff1916149050919050565b505050565b600a80549050600b600083815260200190815260200160002081905550600a81908060018154018082558091505060019003906000526020600020016000909190919091505550565b60006001612c9684610d52565b612ca09190614278565b9050600060096000848152602001908152602001600020549050818114612d85576000600860008673ffffffffffffffffffffffffffffffffffffffff1673ffffffffffffffffffffffffffffffffffffffff168152602001908152602001600020600084815260200190815260200160002054905080600860008773ffffffffffffffffffffffffffffffffffffffff1673ffffffffffffffffffffffffffffffffffffffff168152602001908152602001600020600084815260200190815260200160002081905550816009600083815260200190815260200160002081905550505b6009600084815260200190815260200160002060009055600860008573ffffffffffffffffffffffffffffffffffffffff1673ffffffffffffffffffffffffffffffffffffffff16815260200190815260200160002060008381526020019081526020016000206000905550505050565b60006001600a80549050612e0a9190614278565b90506000600b60008481526020019081526020016000205490506000600a8381548110612e3a57612e39613cbe565b5b9060005260206000200154905080600a8381548110612e5c57612e5b613cbe565b5b906000526020600020018190555081600b600083815260200190815260200160002081905550600b600085815260200190815260200160002060009055600a805480612eab57612eaa614782565b5b6001900381819060005260206000200160009055905550505050565b6000612ed283610d52565b905081600860008573ffffffffffffffffffffffffffffffffffffffff1673ffffffffffffffffffffffffffffffffffffffff168152602001908152602001600020600083815260200190815260200160002081905550806009600084815260200190815260200160002081905550505050565b828054612f52906137fc565b90600052602060002090601f016020900481019282612f745760008555612fbb565b82601f10612f8d57805160ff1916838001178555612fbb565b82800160010185558215612fbb579182015b82811115612fba578251825591602001919060010190612f9f565b5b509050612fc89190612fcc565b5090565b5b80821115612fe5576000816000905550600101612fcd565b5090565b6000604051905090565b600080fd5b600080fd5b60007fffffffff0000000000000000000000000000000000000000000000000000000082169050919050565b61303281612ffd565b811461303d57600080fd5b50565b60008135905061304f81613029565b92915050565b60006020828403121561306b5761306a612ff3565b5b600061307984828501613040565b91505092915050565b60008115159050919050565b61309781613082565b82525050565b60006020820190506130b2600083018461308e565b92915050565b600081519050919050565b600082825260208201905092915050565b60005b838110156130f25780820151818401526020810190506130d7565b83811115613101576000848401525b50505050565b6000601f19601f8301169050919050565b6000613123826130b8565b61312d81856130c3565b935061313d8185602086016130d4565b61314681613107565b840191505092915050565b6000602082019050818103600083015261316b8184613118565b905092915050565b6000819050919050565b61318681613173565b811461319157600080fd5b50565b6000813590506131a38161317d565b92915050565b6000602082840312156131bf576131be612ff3565b5b60006131cd84828501613194565b91505092915050565b600073ffffffffffffffffffffffffffffffffffffffff82169050919050565b6000613201826131d6565b9050919050565b613211816131f6565b82525050565b600060208201905061322c6000830184613208565b92915050565b61323b816131f6565b811461324657600080fd5b50565b60008135905061325881613232565b92915050565b6000806040838503121561327557613274612ff3565b5b600061328385828601613249565b925050602061329485828601613194565b9150509250929050565b600080fd5b600080fd5b7f4e487b7100000000000000000000000000000000000000000000000000000000600052604160045260246000fd5b6132e082613107565b810181811067ffffffffffffffff821117156132ff576132fe6132a8565b5b80604052505050565b6000613312612fe9565b905061331e82826132d7565b919050565b600067ffffffffffffffff82111561333e5761333d6132a8565b5b61334782613107565b9050602081019050919050565b82818337600083830152505050565b600061337661337184613323565b613308565b905082815260208101848484011115613392576133916132a3565b5b61339d848285613354565b509392505050565b600082601f8301126133ba576133b961329e565b5b81356133ca848260208601613363565b91505092915050565b600080600080608085870312156133ed576133ec612ff3565b5b60006133fb87828801613249565b945050602061340c87828801613249565b935050604061341d87828801613194565b925050606085013567ffffffffffffffff81111561343e5761343d612ff8565b5b61344a878288016133a5565b91505092959194509250565b61345f81612ffd565b82525050565b600060208201905061347a6000830184613456565b92915050565b61348981613173565b82525050565b60006020820190506134a46000830184613480565b92915050565b6000806000606084860312156134c3576134c2612ff3565b5b60006134d186828701613249565b93505060206134e286828701613249565b92505060406134f386828701613194565b9150509250925092565b6000819050919050565b613510816134fd565b811461351b57600080fd5b50565b60008135905061352d81613507565b92915050565b60006020828403121561354957613548612ff3565b5b60006135578482850161351e565b91505092915050565b613569816134fd565b82525050565b60006020820190506135846000830184613560565b92915050565b600080604083850312156135a1576135a0612ff3565b5b60006135af8582860161351e565b92505060206135c085828601613249565b9150509250929050565b600067ffffffffffffffff8211156135e5576135e46132a8565b5b6135ee82613107565b9050602081019050919050565b600061360e613609846135ca565b613308565b90508281526020810184848401111561362a576136296132a3565b5b613635848285613354565b509392505050565b600082601f8301126136525761365161329e565b5b81356136628482602086016135fb565b91505092915050565b60006020828403121561368157613680612ff3565b5b600082013567ffffffffffffffff81111561369f5761369e612ff8565b5b6136ab8482850161363d565b91505092915050565b6000602082840312156136ca576136c9612ff3565b5b60006136d884828501613249565b91505092915050565b600080604083850312156136f8576136f7612ff3565b5b60006137068582860161351e565b925050602061371785828601613194565b9150509250929050565b61372a81613082565b811461373557600080fd5b50565b60008135905061374781613721565b92915050565b6000806040838503121561376457613763612ff3565b5b600061377285828601613249565b925050602061378385828601613738565b9150509250929050565b600080604083850312156137a4576137a3612ff3565b5b60006137b285828601613249565b92505060206137c385828601613249565b9150509250929050565b7f4e487b7100000000000000000000000000000000000000000000000000000000600052602260045260246000fd5b6000600282049050600182168061381457607f821691505b60208210811415613828576138276137cd565b5b50919050565b7f4552433732313a20617070726f76656420717565727920666f72206e6f6e657860008201527f697374656e7420746f6b656e0000000000000000000000000000000000000000602082015250565b600061388a602c836130c3565b91506138958261382e565b604082019050919050565b600060208201905081810360008301526138b98161387d565b9050919050565b7f4552433732313a20617070726f76616c20746f2063757272656e74206f776e6560008201527f7200000000000000000000000000000000000000000000000000000000000000602082015250565b600061391c6021836130c3565b9150613927826138c0565b604082019050919050565b6000602082019050818103600083015261394b8161390f565b9050919050565b7f4552433732313a20617070726f76652063616c6c6572206973206e6f74206f7760008201527f6e6572206e6f7220617070726f76656420666f7220616c6c0000000000000000602082015250565b60006139ae6038836130c3565b91506139b982613952565b604082019050919050565b600060208201905081810360008301526139dd816139a1565b9050919050565b7f4552433732313a207472616e736665722063616c6c6572206973206e6f74206f60008201527f776e6572206e6f7220617070726f766564000000000000000000000000000000602082015250565b6000613a406031836130c3565b9150613a4b826139e4565b604082019050919050565b60006020820190508181036000830152613a6f81613a33565b9050919050565b7f455243373231456e756d657261626c653a206f776e657220696e646578206f7560008201527f74206f6620626f756e6473000000000000000000000000000000000000000000602082015250565b6000613ad2602b836130c3565b9150613add82613a76565b604082019050919050565b60006020820190508181036000830152613b0181613ac5565b9050919050565b7f4552433732315072657365744d696e7465725061757365724175746f49643a2060008201527f6d75737420686176652070617573657220726f6c6520746f20756e7061757365602082015250565b6000613b646040836130c3565b9150613b6f82613b08565b604082019050919050565b60006020820190508181036000830152613b9381613b57565b9050919050565b7f4552433732314275726e61626c653a2063616c6c6572206973206e6f74206f7760008201527f6e6572206e6f7220617070726f76656400000000000000000000000000000000602082015250565b6000613bf66030836130c3565b9150613c0182613b9a565b604082019050919050565b60006020820190508181036000830152613c2581613be9565b9050919050565b7f455243373231456e756d657261626c653a20676c6f62616c20696e646578206f60008201527f7574206f6620626f756e64730000000000000000000000000000000000000000602082015250565b6000613c88602c836130c3565b9150613c9382613c2c565b604082019050919050565b60006020820190508181036000830152613cb781613c7b565b9050919050565b7f4e487b7100000000000000000000000000000000000000000000000000000000600052603260045260246000fd5b7f4552433732313a206f776e657220717565727920666f72206e6f6e657869737460008201527f656e7420746f6b656e0000000000000000000000000000000000000000000000602082015250565b6000613d496029836130c3565b9150613d5482613ced565b604082019050919050565b60006020820190508181036000830152613d7881613d3c565b9050919050565b7f4552433732315072657365744d696e7465725061757365724175746f49643a2060008201527f6d7573742068617665206d696e74657220726f6c6520746f206d696e74000000602082015250565b6000613ddb603d836130c3565b9150613de682613d7f565b604082019050919050565b60006020820190508181036000830152613e0a81613dce565b9050919050565b7f4552433732313a2062616c616e636520717565727920666f7220746865207a6560008201527f726f206164647265737300000000000000000000000000000000000000000000602082015250565b6000613e6d602a836130c3565b9150613e7882613e11565b604082019050919050565b60006020820190508181036000830152613e9c81613e60565b9050919050565b7f4552433732315072657365744d696e7465725061757365724175746f49643a2060008201527f6d75737420686176652070617573657220726f6c6520746f2070617573650000602082015250565b6000613eff603e836130c3565b9150613f0a82613ea3565b604082019050919050565b60006020820190508181036000830152613f2e81613ef2565b9050919050565b7f4552433732313a20617070726f766520746f2063616c6c657200000000000000600082015250565b6000613f6b6019836130c3565b9150613f7682613f35565b602082019050919050565b60006020820190508181036000830152613f9a81613f5e565b9050919050565b7f4552433732314d657461646174613a2055524920717565727920666f72206e6f60008201527f6e6578697374656e7420746f6b656e0000000000000000000000000000000000602082015250565b6000613ffd602f836130c3565b915061400882613fa1565b604082019050919050565b6000602082019050818103600083015261402c81613ff0565b9050919050565b600081905092915050565b6000614049826130b8565b6140538185614033565b93506140638185602086016130d4565b80840191505092915050565b600061407b828561403e565b9150614087828461403e565b91508190509392505050565b7f4552433732313a206f70657261746f7220717565727920666f72206e6f6e657860008201527f697374656e7420746f6b656e0000000000000000000000000000000000000000602082015250565b60006140ef602c836130c3565b91506140fa82614093565b604082019050919050565b6000602082019050818103600083015261411e816140e2565b9050919050565b7f4552433732313a207472616e73666572206f6620746f6b656e2074686174206960008201527f73206e6f74206f776e0000000000000000000000000000000000000000000000602082015250565b60006141816029836130c3565b915061418c82614125565b604082019050919050565b600060208201905081810360008301526141b081614174565b9050919050565b7f4552433732313a207472616e7366657220746f20746865207a65726f2061646460008201527f7265737300000000000000000000000000000000000000000000000000000000602082015250565b60006142136024836130c3565b915061421e826141b7565b604082019050919050565b6000602082019050818103600083015261424281614206565b9050919050565b7f4e487b7100000000000000000000000000000000000000000000000000000000600052601160045260246000fd5b600061428382613173565b915061428e83613173565b9250828210156142a1576142a0614249565b5b828203905092915050565b60006142b782613173565b91506142c283613173565b9250827fffffffffffffffffffffffffffffffffffffffffffffffffffffffffffffffff038211156142f7576142f6614249565b5b828201905092915050565b7f416363657373436f6e74726f6c3a2063616e206f6e6c792072656e6f756e636560008201527f20726f6c657320666f722073656c660000000000000000000000000000000000602082015250565b600061435e602f836130c3565b915061436982614302565b604082019050919050565b6000602082019050818103600083015261438d81614351565b9050919050565b7f5061757361626c653a206e6f7420706175736564000000000000000000000000600082015250565b60006143ca6014836130c3565b91506143d582614394565b602082019050919050565b600060208201905081810360008301526143f9816143bd565b9050919050565b7f4552433732313a206d696e7420746f20746865207a65726f2061646472657373600082015250565b60006144366020836130c3565b915061444182614400565b602082019050919050565b6000602082019050818103600083015261446581614429565b9050919050565b7f4552433732313a20746f6b656e20616c7265616479206d696e74656400000000600082015250565b60006144a2601c836130c3565b91506144ad8261446c565b602082019050919050565b600060208201905081810360008301526144d181614495565b9050919050565b7f5061757361626c653a2070617573656400000000000000000000000000000000600082015250565b600061450e6010836130c3565b9150614519826144d8565b602082019050919050565b6000602082019050818103600083015261453d81614501565b9050919050565b7f4552433732313a207472616e7366657220746f206e6f6e20455243373231526560008201527f63656976657220696d706c656d656e7465720000000000000000000000000000602082015250565b60006145a06032836130c3565b91506145ab82614544565b604082019050919050565b600060208201905081810360008301526145cf81614593565b9050919050565b60006145e182613173565b91507fffffffffffffffffffffffffffffffffffffffffffffffffffffffffffffffff82141561461457614613614249565b5b600182019050919050565b7f4e487b7100000000000000000000000000000000000000000000000000000000600052601260045260246000fd5b600061465982613173565b915061466483613173565b9250826146745761467361461f565b5b828204905092915050565b600061468a82613173565b915061469583613173565b9250826146a5576146a461461f565b5b828206905092915050565b7f416363657373436f6e74726f6c3a206163636f756e7420000000000000000000600082015250565b60006146e6601783614033565b91506146f1826146b0565b601782019050919050565b7f206973206d697373696e6720726f6c6520000000000000000000000000000000600082015250565b6000614732601183614033565b915061473d826146fc565b601182019050919050565b6000614753826146d9565b915061475f828561403e565b915061476a82614725565b9150614776828461403e565b91508190509392505050565b7f4e487b7100000000000000000000000000000000000000000000000000000000600052603160045260246000fd5b600081519050919050565b600082825260208201905092915050565b60006147d8826147b1565b6147e281856147bc565b93506147f28185602086016130d4565b6147fb81613107565b840191505092915050565b600060808201905061481b6000830187613208565b6148286020830186613208565b6148356040830185613480565b818103606083015261484781846147cd565b905095945050505050565b60008151905061486181613029565b92915050565b60006020828403121561487d5761487c612ff3565b5b600061488b84828501614852565b91505092915050565b7f4552433732315061757361626c653a20746f6b656e207472616e73666572207760008201527f68696c6520706175736564000000000000000000000000000000000000000000602082015250565b60006148f0602b836130c3565b91506148fb82614894565b604082019050919050565b6000602082019050818103600083015261491f816148e3565b9050919050565b600061493182613173565b915061493c83613173565b9250817fffffffffffffffffffffffffffffffffffffffffffffffffffffffffffffffff048311821515161561497557614974614249565b5b828202905092915050565b600061498b82613173565b9150600082141561499f5761499e614249565b5b600182039050919050565b7f537472696e67733a20686578206c656e67746820696e73756666696369656e74600082015250565b60006149e06020836130c3565b91506149eb826149aa565b602082019050919050565b60006020820190508181036000830152614a0f816149d3565b905091905056fea26469706673582212208109f8f49ed91c49eeb1a25792c3ed74db2a35c2d2f247781542f3fbe3cd214564736f6c634300080a003368747470733a2f2f6d792d6a736f6e2d7365727665722e74797069636f64652e636f6d2f6a6e6f6f646c652f7869616f646f75646f752f6d657461646174612f",
  "immutableReferences": {},
  "source": "pragma solidity ^0.8.0;\n\nimport \"@openzeppelin/contracts/token/ERC721/presets/ERC721PresetMinterPauserAutoId.sol\";\nimport \"@openzeppelin/contracts/token/ERC721/utils/ERC721Holder.sol\";\n\ncontract XiaoDouDouNFT is ERC721PresetMinterPauserAutoId, ERC721Holder {\n    constructor() ERC721PresetMinterPauserAutoId(\"XiaoDouDou\", \"DOU\", \"https://my-json-server.typicode.com/jnoodle/xiaodoudou/metadata/\") {\n    }\n}\n",
  "sourcePath": "/Users/Jnoodle/GitProjectsJnoodle/xiaodoudou/contract/contracts/Xiaodoudou.sol",
  "compiler": {
    "name": "solc",
    "version": "0.8.10+commit.fc410830.Emscripten.clang"
  },
  "schemaVersion": "3.4.1",
  "updatedAt": "2021-11-16T10:52:46.904Z",
  "devdoc": {
    "kind": "dev",
    "methods": {
      "approve(address,uint256)": {
        "details": "See {IERC721-approve}."
      },
      "balanceOf(address)": {
        "details": "See {IERC721-balanceOf}."
      },
      "burn(uint256)": {
        "details": "Burns `tokenId`. See {ERC721-_burn}. Requirements: - The caller must own `tokenId` or be an approved operator."
      },
      "getApproved(uint256)": {
        "details": "See {IERC721-getApproved}."
      },
      "getRoleAdmin(bytes32)": {
        "details": "Returns the admin role that controls `role`. See {grantRole} and {revokeRole}. To change a role's admin, use {_setRoleAdmin}."
      },
      "getRoleMember(bytes32,uint256)": {
        "details": "Returns one of the accounts that have `role`. `index` must be a value between 0 and {getRoleMemberCount}, non-inclusive. Role bearers are not sorted in any particular way, and their ordering may change at any point. WARNING: When using {getRoleMember} and {getRoleMemberCount}, make sure you perform all queries on the same block. See the following https://forum.openzeppelin.com/t/iterating-over-elements-on-enumerableset-in-openzeppelin-contracts/2296[forum post] for more information."
      },
      "getRoleMemberCount(bytes32)": {
        "details": "Returns the number of accounts that have `role`. Can be used together with {getRoleMember} to enumerate all bearers of a role."
      },
      "grantRole(bytes32,address)": {
        "details": "Overload {grantRole} to track enumerable memberships"
      },
      "hasRole(bytes32,address)": {
        "details": "Returns `true` if `account` has been granted `role`."
      },
      "isApprovedForAll(address,address)": {
        "details": "See {IERC721-isApprovedForAll}."
      },
      "mint(address)": {
        "details": "Creates a new token for `to`. Its token ID will be automatically assigned (and available on the emitted {IERC721-Transfer} event), and the token URI autogenerated based on the base URI passed at construction. See {ERC721-_mint}. Requirements: - the caller must have the `MINTER_ROLE`."
      },
      "name()": {
        "details": "See {IERC721Metadata-name}."
      },
      "onERC721Received(address,address,uint256,bytes)": {
        "details": "See {IERC721Receiver-onERC721Received}. Always returns `IERC721Receiver.onERC721Received.selector`."
      },
      "ownerOf(uint256)": {
        "details": "See {IERC721-ownerOf}."
      },
      "pause()": {
        "details": "Pauses all token transfers. See {ERC721Pausable} and {Pausable-_pause}. Requirements: - the caller must have the `PAUSER_ROLE`."
      },
      "paused()": {
        "details": "Returns true if the contract is paused, and false otherwise."
      },
      "renounceRole(bytes32,address)": {
        "details": "Overload {renounceRole} to track enumerable memberships"
      },
      "revokeRole(bytes32,address)": {
        "details": "Overload {revokeRole} to track enumerable memberships"
      },
      "safeTransferFrom(address,address,uint256)": {
        "details": "See {IERC721-safeTransferFrom}."
      },
      "safeTransferFrom(address,address,uint256,bytes)": {
        "details": "See {IERC721-safeTransferFrom}."
      },
      "setApprovalForAll(address,bool)": {
        "details": "See {IERC721-setApprovalForAll}."
      },
      "supportsInterface(bytes4)": {
        "details": "See {IERC165-supportsInterface}."
      },
      "symbol()": {
        "details": "See {IERC721Metadata-symbol}."
      },
      "tokenByIndex(uint256)": {
        "details": "See {IERC721Enumerable-tokenByIndex}."
      },
      "tokenOfOwnerByIndex(address,uint256)": {
        "details": "See {IERC721Enumerable-tokenOfOwnerByIndex}."
      },
      "tokenURI(uint256)": {
        "details": "See {IERC721Metadata-tokenURI}."
      },
      "totalSupply()": {
        "details": "See {IERC721Enumerable-totalSupply}."
      },
      "transferFrom(address,address,uint256)": {
        "details": "See {IERC721-transferFrom}."
      },
      "unpause()": {
        "details": "Unpauses all token transfers. See {ERC721Pausable} and {Pausable-_unpause}. Requirements: - the caller must have the `PAUSER_ROLE`."
      }
    },
    "version": 1
  },
  "userdoc": {
    "kind": "user",
    "methods": {},
    "version": 1
  }
}